{
  "_format": "hh-sol-artifact-1",
  "contractName": "Raffle",
  "sourceName": "contracts/Raffle.sol",
  "abi": [
    {
      "inputs": [
        {
          "internalType": "uint256",
          "name": "entranceFee",
          "type": "uint256"
        },
        {
          "internalType": "address",
          "name": "vrfCordinatorV2",
          "type": "address"
        },
        {
          "internalType": "bytes32",
          "name": "gasLane",
          "type": "bytes32"
        },
        {
          "internalType": "uint64",
          "name": "subscriptionId",
          "type": "uint64"
        },
        {
          "internalType": "uint32",
          "name": "callbackGasLimit",
          "type": "uint32"
        }
      ],
      "stateMutability": "nonpayable",
      "type": "constructor"
    },
    {
      "inputs": [
        {
          "internalType": "address",
          "name": "have",
          "type": "address"
        },
        {
          "internalType": "address",
          "name": "want",
          "type": "address"
        }
      ],
      "name": "OnlyCoordinatorCanFulfill",
      "type": "error"
    },
    {
      "inputs": [],
      "name": "Raffle__NotAdmin",
      "type": "error"
    },
    {
      "inputs": [],
      "name": "Raffle__SendMoreToEnterRaffle",
      "type": "error"
    },
    {
      "inputs": [],
      "name": "Raffle__TransferFailed",
      "type": "error"
    },
    {
      "inputs": [],
      "name": "Raffle__UpkeepNotNeeded",
      "type": "error"
    },
    {
      "anonymous": false,
      "inputs": [
        {
          "indexed": true,
          "internalType": "address",
          "name": "player",
          "type": "address"
        }
      ],
      "name": "RaffleEntered",
      "type": "event"
    },
    {
      "anonymous": false,
      "inputs": [
        {
          "indexed": true,
          "internalType": "uint256",
          "name": "requestId",
          "type": "uint256"
        }
      ],
      "name": "RequestedRaffleWinner",
      "type": "event"
    },
    {
      "anonymous": false,
      "inputs": [
        {
          "indexed": true,
          "internalType": "address",
          "name": "winner",
          "type": "address"
        }
      ],
      "name": "WinnerPicked",
      "type": "event"
    },
    {
      "inputs": [],
      "name": "NUM_WORDS",
      "outputs": [
        {
          "internalType": "uint32",
          "name": "",
          "type": "uint32"
        }
      ],
      "stateMutability": "view",
      "type": "function"
    },
    {
      "inputs": [],
      "name": "REQUEST_CONFIRMATIONS",
      "outputs": [
        {
          "internalType": "uint16",
          "name": "",
          "type": "uint16"
        }
      ],
      "stateMutability": "view",
      "type": "function"
    },
    {
      "inputs": [],
      "name": "checkUpKeep",
      "outputs": [
        {
          "internalType": "bool",
          "name": "",
          "type": "bool"
        }
      ],
      "stateMutability": "view",
      "type": "function"
    },
    {
      "inputs": [],
      "name": "closeRaffle",
      "outputs": [
        {
          "internalType": "uint256",
          "name": "",
          "type": "uint256"
        }
      ],
      "stateMutability": "nonpayable",
      "type": "function"
    },
    {
      "inputs": [],
      "name": "enterRaffle",
      "outputs": [],
      "stateMutability": "payable",
      "type": "function"
    },
    {
      "inputs": [],
      "name": "getEntranceFee",
      "outputs": [
        {
          "internalType": "uint256",
          "name": "",
          "type": "uint256"
        }
      ],
      "stateMutability": "view",
      "type": "function"
    },
    {
      "inputs": [],
      "name": "getNumWords",
      "outputs": [
        {
          "internalType": "uint256",
          "name": "",
          "type": "uint256"
        }
      ],
      "stateMutability": "pure",
      "type": "function"
    },
    {
      "inputs": [],
      "name": "getNumberOfPlayers",
      "outputs": [
        {
          "internalType": "uint256",
          "name": "",
          "type": "uint256"
        }
      ],
      "stateMutability": "view",
      "type": "function"
    },
    {
      "inputs": [
        {
          "internalType": "uint256",
          "name": "index",
          "type": "uint256"
        }
      ],
      "name": "getPlayer",
      "outputs": [
        {
          "internalType": "address",
          "name": "",
          "type": "address"
        }
      ],
      "stateMutability": "view",
      "type": "function"
    },
    {
      "inputs": [],
      "name": "getRaffleState",
      "outputs": [
        {
          "internalType": "enum Raffle.RaffleState",
          "name": "",
          "type": "uint8"
        }
      ],
      "stateMutability": "view",
      "type": "function"
    },
    {
      "inputs": [],
      "name": "getRecentWinner",
      "outputs": [
        {
          "internalType": "address",
          "name": "",
          "type": "address"
        }
      ],
      "stateMutability": "view",
      "type": "function"
    },
    {
      "inputs": [],
      "name": "getRequestConfirmations",
      "outputs": [
        {
          "internalType": "uint256",
          "name": "",
          "type": "uint256"
        }
      ],
      "stateMutability": "pure",
      "type": "function"
    },
    {
      "inputs": [],
      "name": "i_admin",
      "outputs": [
        {
          "internalType": "address",
          "name": "",
          "type": "address"
        }
      ],
      "stateMutability": "view",
      "type": "function"
    },
    {
      "inputs": [],
      "name": "i_callbackGasLimit",
      "outputs": [
        {
          "internalType": "uint32",
          "name": "",
          "type": "uint32"
        }
      ],
      "stateMutability": "view",
      "type": "function"
    },
    {
      "inputs": [],
      "name": "i_entranceFee",
      "outputs": [
        {
          "internalType": "uint256",
          "name": "",
          "type": "uint256"
        }
      ],
      "stateMutability": "view",
      "type": "function"
    },
    {
      "inputs": [],
      "name": "i_gasLane",
      "outputs": [
        {
          "internalType": "bytes32",
          "name": "",
          "type": "bytes32"
        }
      ],
      "stateMutability": "view",
      "type": "function"
    },
    {
      "inputs": [],
      "name": "i_subscriptionId",
      "outputs": [
        {
          "internalType": "uint64",
          "name": "",
          "type": "uint64"
        }
      ],
      "stateMutability": "view",
      "type": "function"
    },
    {
      "inputs": [],
      "name": "i_vrfCordinator",
      "outputs": [
        {
          "internalType": "contract VRFCoordinatorV2Interface",
          "name": "",
          "type": "address"
        }
      ],
      "stateMutability": "view",
      "type": "function"
    },
    {
      "inputs": [
        {
          "internalType": "uint256",
          "name": "requestId",
          "type": "uint256"
        },
        {
          "internalType": "uint256[]",
          "name": "randomWords",
          "type": "uint256[]"
        }
      ],
      "name": "rawFulfillRandomWords",
      "outputs": [],
      "stateMutability": "nonpayable",
      "type": "function"
    },
    {
      "inputs": [
        {
          "internalType": "uint256",
          "name": "",
          "type": "uint256"
        }
      ],
      "name": "s_players",
      "outputs": [
        {
          "internalType": "address payable",
          "name": "",
          "type": "address"
        }
      ],
      "stateMutability": "view",
      "type": "function"
    },
    {
      "inputs": [],
      "name": "s_raffleState",
      "outputs": [
        {
          "internalType": "enum Raffle.RaffleState",
          "name": "",
          "type": "uint8"
        }
      ],
      "stateMutability": "view",
      "type": "function"
    },
    {
      "inputs": [],
      "name": "s_recentWinner",
      "outputs": [
        {
          "internalType": "address payable",
          "name": "",
          "type": "address"
        }
      ],
      "stateMutability": "view",
      "type": "function"
    }
  ],
  "bytecode": "0x60e06040523480156200001157600080fd5b506040516200184a3803806200184a8339818101604052810190620000379190620001bf565b838073ffffffffffffffffffffffffffffffffffffffff1660808173ffffffffffffffffffffffffffffffffffffffff1660601b815250505033600360006101000a81548173ffffffffffffffffffffffffffffffffffffffff021916908373ffffffffffffffffffffffffffffffffffffffff1602179055508460a081815250508373ffffffffffffffffffffffffffffffffffffffff1660c08173ffffffffffffffffffffffffffffffffffffffff1660601b815250508260048190555081600560006101000a81548167ffffffffffffffff021916908367ffffffffffffffff16021790555080600560086101000a81548163ffffffff021916908363ffffffff16021790555050505050506200033a565b6000815190506200015d81620002b8565b92915050565b6000815190506200017481620002d2565b92915050565b6000815190506200018b81620002ec565b92915050565b600081519050620001a28162000306565b92915050565b600081519050620001b98162000320565b92915050565b600080600080600060a08688031215620001de57620001dd620002b3565b5b6000620001ee888289016200017a565b955050602062000201888289016200014c565b9450506040620002148882890162000163565b93505060606200022788828901620001a8565b92505060806200023a8882890162000191565b9150509295509295909350565b6000620002548262000265565b9050919050565b6000819050919050565b600073ffffffffffffffffffffffffffffffffffffffff82169050919050565b6000819050919050565b600063ffffffff82169050919050565b600067ffffffffffffffff82169050919050565b600080fd5b620002c38162000247565b8114620002cf57600080fd5b50565b620002dd816200025b565b8114620002e957600080fd5b50565b620002f78162000285565b81146200030357600080fd5b50565b62000311816200028f565b81146200031d57600080fd5b50565b6200032b816200029f565b81146200033757600080fd5b50565b60805160601c60a05160c05160601c6114be6200038c600039600081816108770152610a950152600081816104f1015281816105ed015261098d01526000818161052d015261058101526114be6000f3fe6080604052600436106101355760003560e01c806378a77b84116100ab578063c8249d8a1161006f578063c8249d8a146103d9578063cc45483f14610404578063cd1d770d1461042f578063d757d0271461045a578063e55ae4e814610485578063fd6673f5146104c257610135565b806378a77b84146102f05780637ea3e6c11461031b5780638638b0c6146103465780638e879c8a14610371578063ae771f6b1461039c57610135565b8063473f1ddc116100fd578063473f1ddc146101ee5780634c43d2841461021957806353a2c19a146102445780635f1b0fd81461026f57806367f082b01461029a57806372cf6e34146102c557610135565b806309bc33a71461013a578063115cbaf5146101655780631fe543e3146101905780632cfcc539146101b9578063470cdf97146101c3575b600080fd5b34801561014657600080fd5b5061014f6104ed565b60405161015c9190611179565b60405180910390f35b34801561017157600080fd5b5061017a610515565b6040516101879190611143565b60405180910390f35b34801561019c57600080fd5b506101b760048036038101906101b29190610f16565b61052b565b005b6101c16105eb565b005b3480156101cf57600080fd5b506101d86106ed565b6040516101e591906111af565b60405180910390f35b3480156101fa57600080fd5b50610203610707565b6040516102109190611040565b60405180910390f35b34801561022557600080fd5b5061022e610731565b60405161023b9190611040565b60405180910390f35b34801561025057600080fd5b50610259610757565b6040516102669190611179565b60405180910390f35b34801561027b57600080fd5b50610284610766565b6040516102919190611179565b60405180910390f35b3480156102a657600080fd5b506102af610773565b6040516102bc919061115e565b60405180910390f35b3480156102d157600080fd5b506102da610778565b6040516102e79190611194565b60405180910390f35b3480156102fc57600080fd5b5061030561077d565b6040516103129190611179565b60405180910390f35b34801561032757600080fd5b5061033061098b565b60405161033d9190611179565b60405180910390f35b34801561035257600080fd5b5061035b6109af565b604051610368919061105b565b60405180910390f35b34801561037d57600080fd5b506103866109d5565b60405161039391906110ba565b60405180910390f35b3480156103a857600080fd5b506103c360048036038101906103be9190610ebc565b6109db565b6040516103d0919061105b565b60405180910390f35b3480156103e557600080fd5b506103ee610a1a565b6040516103fb919061109f565b60405180910390f35b34801561041057600080fd5b50610419610a82565b6040516104269190611143565b60405180910390f35b34801561043b57600080fd5b50610444610a93565b6040516104519190611128565b60405180910390f35b34801561046657600080fd5b5061046f610ab7565b60405161047c9190611194565b60405180910390f35b34801561049157600080fd5b506104ac60048036038101906104a79190610ebc565b610acd565b6040516104b99190611040565b60405180910390f35b3480156104ce57600080fd5b506104d7610b15565b6040516104e49190611179565b60405180910390f35b60007f0000000000000000000000000000000000000000000000000000000000000000905090565b60008060009054906101000a900460ff16905090565b7f000000000000000000000000000000000000000000000000000000000000000073ffffffffffffffffffffffffffffffffffffffff163373ffffffffffffffffffffffffffffffffffffffff16146105dd57337f00000000000000000000000000000000000000000000000000000000000000006040517f1cf993f40000000000000000000000000000000000000000000000000000000081526004016105d4929190611076565b60405180910390fd5b6105e78282610b22565b5050565b7f0000000000000000000000000000000000000000000000000000000000000000341015610645576040517f3038c00a00000000000000000000000000000000000000000000000000000000815260040160405180910390fd5b6001339080600181540180825580915050600190039060005260206000200160009091909190916101000a81548173ffffffffffffffffffffffffffffffffffffffff021916908373ffffffffffffffffffffffffffffffffffffffff1602179055503373ffffffffffffffffffffffffffffffffffffffff167f634f3211e3a4e43fee5a21ad9f87ca153b300fc78b1c557a2057dbe9c63bcb4760405160405180910390a2565b600560009054906101000a900467ffffffffffffffff1681565b6000600260009054906101000a900473ffffffffffffffffffffffffffffffffffffffff16905090565b600360009054906101000a900473ffffffffffffffffffffffffffffffffffffffff1681565b6000600163ffffffff16905090565b6000600361ffff16905090565b600381565b600181565b6000600360009054906101000a900473ffffffffffffffffffffffffffffffffffffffff1673ffffffffffffffffffffffffffffffffffffffff163373ffffffffffffffffffffffffffffffffffffffff1614610806576040517ffd19b09500000000000000000000000000000000000000000000000000000000815260040160405180910390fd5b6000610810610a1a565b905080610849576040517f8e4bc81700000000000000000000000000000000000000000000000000000000815260040160405180910390fd5b60026000806101000a81548160ff0219169083600281111561086e5761086d6113a8565b5b021790555060007f000000000000000000000000000000000000000000000000000000000000000073ffffffffffffffffffffffffffffffffffffffff16635d3b1d30600454600560009054906101000a900467ffffffffffffffff166003600560089054906101000a900463ffffffff1660016040518663ffffffff1660e01b81526004016109029594939291906110d5565b602060405180830381600087803b15801561091c57600080fd5b505af1158015610930573d6000803e3d6000fd5b505050506040513d601f19601f820116820180604052508101906109549190610ee9565b9050807fcd6e45c8998311cab7e9d4385596cac867e20a0587194b954fa3a731c93ce78b60405160405180910390a2809250505090565b7f000000000000000000000000000000000000000000000000000000000000000081565b600260009054906101000a900473ffffffffffffffffffffffffffffffffffffffff1681565b60045481565b600181815481106109eb57600080fd5b906000526020600020016000915054906101000a900473ffffffffffffffffffffffffffffffffffffffff1681565b60008060006002811115610a3157610a306113a8565b5b60008054906101000a900460ff166002811115610a5157610a506113a8565b5b14905060008047119050600080600180549050119050828015610a715750815b8015610a7a5750805b935050505090565b60008054906101000a900460ff1681565b7f000000000000000000000000000000000000000000000000000000000000000081565b600560089054906101000a900463ffffffff1681565b600060018281548110610ae357610ae26113d7565b5b9060005260206000200160009054906101000a900473ffffffffffffffffffffffffffffffffffffffff169050919050565b6000600180549050905090565b600060018054905082600081518110610b3e57610b3d6113d7565b5b6020026020010151610b509190611348565b9050600060018281548110610b6857610b676113d7565b5b9060005260206000200160009054906101000a900473ffffffffffffffffffffffffffffffffffffffff16905080600260006101000a81548173ffffffffffffffffffffffffffffffffffffffff021916908373ffffffffffffffffffffffffffffffffffffffff160217905550600067ffffffffffffffff811115610bf157610bf0611406565b5b604051908082528060200260200182016040528015610c1f5781602001602082028036833780820191505090505b5060019080519060200190610c35929190610d4d565b5060008060006101000a81548160ff02191690836002811115610c5b57610c5a6113a8565b5b021790555060008173ffffffffffffffffffffffffffffffffffffffff1647604051610c869061102b565b60006040518083038185875af1925050503d8060008114610cc3576040519150601f19603f3d011682016040523d82523d6000602084013e610cc8565b606091505b5050905080610d03576040517fa1d04b3900000000000000000000000000000000000000000000000000000000815260040160405180910390fd5b8173ffffffffffffffffffffffffffffffffffffffff167f5b690ec4a06fe979403046eaeea5b3ce38524683c3001f662c8b5a829632f7df60405160405180910390a25050505050565b828054828255906000526020600020908101928215610dc6579160200282015b82811115610dc55782518260006101000a81548173ffffffffffffffffffffffffffffffffffffffff021916908373ffffffffffffffffffffffffffffffffffffffff16021790555091602001919060010190610d6d565b5b509050610dd39190610dd7565b5090565b5b80821115610df0576000816000905550600101610dd8565b5090565b6000610e07610e02846111ef565b6111ca565b90508083825260208201905082856020860282011115610e2a57610e2961143a565b5b60005b85811015610e5a5781610e408882610e92565b845260208401935060208301925050600181019050610e2d565b5050509392505050565b600082601f830112610e7957610e78611435565b5b8135610e89848260208601610df4565b91505092915050565b600081359050610ea181611471565b92915050565b600081519050610eb681611471565b92915050565b600060208284031215610ed257610ed1611444565b5b6000610ee084828501610e92565b91505092915050565b600060208284031215610eff57610efe611444565b5b6000610f0d84828501610ea7565b91505092915050565b60008060408385031215610f2d57610f2c611444565b5b6000610f3b85828601610e92565b925050602083013567ffffffffffffffff811115610f5c57610f5b61143f565b5b610f6885828601610e64565b9150509250929050565b610f7b81611238565b82525050565b610f8a81611226565b82525050565b610f998161124a565b82525050565b610fa881611256565b82525050565b610fb7816112cf565b82525050565b610fc6816112e1565b82525050565b6000610fd960008361121b565b9150610fe48261145a565b600082019050919050565b610ff881611273565b82525050565b611007816112a1565b82525050565b611016816112ab565b82525050565b611025816112bb565b82525050565b600061103682610fcc565b9150819050919050565b60006020820190506110556000830184610f81565b92915050565b60006020820190506110706000830184610f72565b92915050565b600060408201905061108b6000830185610f81565b6110986020830184610f81565b9392505050565b60006020820190506110b46000830184610f90565b92915050565b60006020820190506110cf6000830184610f9f565b92915050565b600060a0820190506110ea6000830188610f9f565b6110f7602083018761101c565b6111046040830186610fef565b611111606083018561100d565b61111e608083018461100d565b9695505050505050565b600060208201905061113d6000830184610fae565b92915050565b60006020820190506111586000830184610fbd565b92915050565b60006020820190506111736000830184610fef565b92915050565b600060208201905061118e6000830184610ffe565b92915050565b60006020820190506111a9600083018461100d565b92915050565b60006020820190506111c4600083018461101c565b92915050565b60006111d46111e5565b90506111e08282611317565b919050565b6000604051905090565b600067ffffffffffffffff82111561120a57611209611406565b5b602082029050602081019050919050565b600081905092915050565b600061123182611281565b9050919050565b600061124382611281565b9050919050565b60008115159050919050565b6000819050919050565b600081905061126e8261145d565b919050565b600061ffff82169050919050565b600073ffffffffffffffffffffffffffffffffffffffff82169050919050565b6000819050919050565b600063ffffffff82169050919050565b600067ffffffffffffffff82169050919050565b60006112da826112f3565b9050919050565b60006112ec82611260565b9050919050565b60006112fe82611305565b9050919050565b600061131082611281565b9050919050565b61132082611449565b810181811067ffffffffffffffff8211171561133f5761133e611406565b5b80604052505050565b6000611353826112a1565b915061135e836112a1565b92508261136e5761136d611379565b5b828206905092915050565b7f4e487b7100000000000000000000000000000000000000000000000000000000600052601260045260246000fd5b7f4e487b7100000000000000000000000000000000000000000000000000000000600052602160045260246000fd5b7f4e487b7100000000000000000000000000000000000000000000000000000000600052603260045260246000fd5b7f4e487b7100000000000000000000000000000000000000000000000000000000600052604160045260246000fd5b600080fd5b600080fd5b600080fd5b600080fd5b6000601f19601f8301169050919050565b50565b6003811061146e5761146d6113a8565b5b50565b61147a816112a1565b811461148557600080fd5b5056fea264697066735822122024c8b1ae13cd81ebe5545bc11006222e588590b0c82d8244e97eb866a94c6d7d64736f6c63430008070033",
  "linkReferences": {},
  "deployedLinkReferences": {}
}