{
  "_format": "hh-sol-artifact-1",
  "contractName": "Raffle",
  "sourceName": "contracts/Raffle.sol",
  "abi": [
    {
      "inputs": [
        {
          "internalType": "uint256",
          "name": "entranceFee",
          "type": "uint256"
        },
        {
          "internalType": "uint256",
          "name": "interval",
          "type": "uint256"
        },
        {
          "internalType": "address",
          "name": "vrfCordinatorV2",
          "type": "address"
        },
        {
          "internalType": "bytes32",
          "name": "gasLane",
          "type": "bytes32"
        },
        {
          "internalType": "uint64",
          "name": "subscriptionId",
          "type": "uint64"
        },
        {
          "internalType": "uint32",
          "name": "callbackGasLimit",
          "type": "uint32"
        }
      ],
      "stateMutability": "nonpayable",
      "type": "constructor"
    },
    {
      "inputs": [
        {
          "internalType": "address",
          "name": "have",
          "type": "address"
        },
        {
          "internalType": "address",
          "name": "want",
          "type": "address"
        }
      ],
      "name": "OnlyCoordinatorCanFulfill",
      "type": "error"
    },
    {
      "inputs": [],
      "name": "Raffle__RaffleNotOpen",
      "type": "error"
    },
    {
      "inputs": [],
      "name": "Raffle__SendMoreToEnterRaffle",
      "type": "error"
    },
    {
      "inputs": [],
      "name": "Raffle__TransferFailed",
      "type": "error"
    },
    {
      "inputs": [],
      "name": "Raffle__UpkeepNotNeeded",
      "type": "error"
    },
    {
      "anonymous": false,
      "inputs": [
        {
          "indexed": true,
          "internalType": "address",
          "name": "player",
          "type": "address"
        }
      ],
      "name": "RaffleEntered",
      "type": "event"
    },
    {
      "anonymous": false,
      "inputs": [
        {
          "indexed": true,
          "internalType": "uint256",
          "name": "requestId",
          "type": "uint256"
        }
      ],
      "name": "RequestedRaffleWinner",
      "type": "event"
    },
    {
      "anonymous": false,
      "inputs": [
        {
          "indexed": true,
          "internalType": "address",
          "name": "winner",
          "type": "address"
        }
      ],
      "name": "WinnerPicked",
      "type": "event"
    },
    {
      "inputs": [],
      "name": "NUM_WORDS",
      "outputs": [
        {
          "internalType": "uint32",
          "name": "",
          "type": "uint32"
        }
      ],
      "stateMutability": "view",
      "type": "function"
    },
    {
      "inputs": [],
      "name": "REQUEST_CONFIRMATIONS",
      "outputs": [
        {
          "internalType": "uint16",
          "name": "",
          "type": "uint16"
        }
      ],
      "stateMutability": "view",
      "type": "function"
    },
    {
      "inputs": [
        {
          "internalType": "bytes",
          "name": "",
          "type": "bytes"
        }
      ],
      "name": "checkUpkeep",
      "outputs": [
        {
          "internalType": "bool",
          "name": "upkeepNeeded",
          "type": "bool"
        },
        {
          "internalType": "bytes",
          "name": "",
          "type": "bytes"
        }
      ],
      "stateMutability": "view",
      "type": "function"
    },
    {
      "inputs": [],
      "name": "enterRaffle",
      "outputs": [],
      "stateMutability": "payable",
      "type": "function"
    },
    {
      "inputs": [],
      "name": "i_callbackGasLimit",
      "outputs": [
        {
          "internalType": "uint32",
          "name": "",
          "type": "uint32"
        }
      ],
      "stateMutability": "view",
      "type": "function"
    },
    {
      "inputs": [],
      "name": "i_entranceFee",
      "outputs": [
        {
          "internalType": "uint256",
          "name": "",
          "type": "uint256"
        }
      ],
      "stateMutability": "view",
      "type": "function"
    },
    {
      "inputs": [],
      "name": "i_gasLane",
      "outputs": [
        {
          "internalType": "bytes32",
          "name": "",
          "type": "bytes32"
        }
      ],
      "stateMutability": "view",
      "type": "function"
    },
    {
      "inputs": [],
      "name": "i_interval",
      "outputs": [
        {
          "internalType": "uint256",
          "name": "",
          "type": "uint256"
        }
      ],
      "stateMutability": "view",
      "type": "function"
    },
    {
      "inputs": [],
      "name": "i_subscriptionId",
      "outputs": [
        {
          "internalType": "uint64",
          "name": "",
          "type": "uint64"
        }
      ],
      "stateMutability": "view",
      "type": "function"
    },
    {
      "inputs": [],
      "name": "i_vrfCordinator",
      "outputs": [
        {
          "internalType": "contract VRFCoordinatorV2Interface",
          "name": "",
          "type": "address"
        }
      ],
      "stateMutability": "view",
      "type": "function"
    },
    {
      "inputs": [
        {
          "internalType": "bytes",
          "name": "",
          "type": "bytes"
        }
      ],
      "name": "performUpkeep",
      "outputs": [],
      "stateMutability": "nonpayable",
      "type": "function"
    },
    {
      "inputs": [
        {
          "internalType": "uint256",
          "name": "requestId",
          "type": "uint256"
        },
        {
          "internalType": "uint256[]",
          "name": "randomWords",
          "type": "uint256[]"
        }
      ],
      "name": "rawFulfillRandomWords",
      "outputs": [],
      "stateMutability": "nonpayable",
      "type": "function"
    },
    {
      "inputs": [],
      "name": "s_lastTimestampt",
      "outputs": [
        {
          "internalType": "uint256",
          "name": "",
          "type": "uint256"
        }
      ],
      "stateMutability": "view",
      "type": "function"
    },
    {
      "inputs": [
        {
          "internalType": "uint256",
          "name": "",
          "type": "uint256"
        }
      ],
      "name": "s_players",
      "outputs": [
        {
          "internalType": "address payable",
          "name": "",
          "type": "address"
        }
      ],
      "stateMutability": "view",
      "type": "function"
    },
    {
      "inputs": [],
      "name": "s_raffleState",
      "outputs": [
        {
          "internalType": "enum Raffle.RaffleState",
          "name": "",
          "type": "uint8"
        }
      ],
      "stateMutability": "view",
      "type": "function"
    },
    {
      "inputs": [],
      "name": "s_recentWinner",
      "outputs": [
        {
          "internalType": "address payable",
          "name": "",
          "type": "address"
        }
      ],
      "stateMutability": "view",
      "type": "function"
    }
  ],
  "bytecode": "0x6101006040523480156200001257600080fd5b50604051620019493803806200194983398181016040528101906200003891906200018f565b838073ffffffffffffffffffffffffffffffffffffffff1660808173ffffffffffffffffffffffffffffffffffffffff1660601b81525050508560a081815250508460c08181525050426000819055508373ffffffffffffffffffffffffffffffffffffffff1660e08173ffffffffffffffffffffffffffffffffffffffff1660601b815250508260048190555081600560006101000a81548167ffffffffffffffff021916908367ffffffffffffffff16021790555080600560086101000a81548163ffffffff021916908363ffffffff1602179055505050505050506200031e565b6000815190506200012d816200029c565b92915050565b6000815190506200014481620002b6565b92915050565b6000815190506200015b81620002d0565b92915050565b6000815190506200017281620002ea565b92915050565b600081519050620001898162000304565b92915050565b60008060008060008060c08789031215620001af57620001ae62000297565b5b6000620001bf89828a016200014a565b9650506020620001d289828a016200014a565b9550506040620001e589828a016200011c565b9450506060620001f889828a0162000133565b93505060806200020b89828a0162000178565b92505060a06200021e89828a0162000161565b9150509295509295509295565b6000620002388262000249565b9050919050565b6000819050919050565b600073ffffffffffffffffffffffffffffffffffffffff82169050919050565b6000819050919050565b600063ffffffff82169050919050565b600067ffffffffffffffff82169050919050565b600080fd5b620002a7816200022b565b8114620002b357600080fd5b50565b620002c1816200023f565b8114620002cd57600080fd5b50565b620002db8162000269565b8114620002e757600080fd5b50565b620002f58162000273565b81146200030157600080fd5b50565b6200030f8162000283565b81146200031b57600080fd5b50565b60805160601c60a05160c05160e05160601c6115cf6200037a6000396000818161067f01526109680152600081816107b2015261081701526000818161046a01526108c00152600081816103aa01526103fe01526115cf6000f3fe6080604052600436106100f35760003560e01c80637ea3e6c11161008a578063c27c005511610059578063c27c0055146102fc578063cc45483f14610327578063cd1d770d14610352578063d757d0271461037d576100f3565b80637ea3e6c11461023e5780638638b0c6146102695780638e879c8a14610294578063ae771f6b146102bf576100f3565b806367f082b0116100c657806367f082b01461017f5780636919207d146101aa5780636e04ff0d146101d557806372cf6e3414610213576100f3565b80631fe543e3146100f85780632cfcc539146101215780634585e33b1461012b578063470cdf9714610154575b600080fd5b34801561010457600080fd5b5061011f600480360381019061011a9190610ef8565b6103a8565b005b610129610468565b005b34801561013757600080fd5b50610152600480360381019061014d9190610e08565b6105d7565b005b34801561016057600080fd5b50610169610791565b60405161017691906111c4565b60405180910390f35b34801561018b57600080fd5b506101946107ab565b6040516101a19190611173565b60405180910390f35b3480156101b657600080fd5b506101bf6107b0565b6040516101cc919061118e565b60405180910390f35b3480156101e157600080fd5b506101fc60048036038101906101f79190610e55565b6107d4565b60405161020a92919061109f565b60405180910390f35b34801561021f57600080fd5b506102286108b9565b60405161023591906111a9565b60405180910390f35b34801561024a57600080fd5b506102536108be565b604051610260919061118e565b60405180910390f35b34801561027557600080fd5b5061027e6108e2565b60405161028b919061105b565b60405180910390f35b3480156102a057600080fd5b506102a9610908565b6040516102b691906110cf565b60405180910390f35b3480156102cb57600080fd5b506102e660048036038101906102e19190610e9e565b61090e565b6040516102f3919061105b565b60405180910390f35b34801561030857600080fd5b5061031161094d565b60405161031e919061118e565b60405180910390f35b34801561033357600080fd5b5061033c610953565b6040516103499190611158565b60405180910390f35b34801561035e57600080fd5b50610367610966565b604051610374919061113d565b60405180910390f35b34801561038957600080fd5b5061039261098a565b60405161039f91906111a9565b60405180910390f35b7f000000000000000000000000000000000000000000000000000000000000000073ffffffffffffffffffffffffffffffffffffffff163373ffffffffffffffffffffffffffffffffffffffff161461045a57337f00000000000000000000000000000000000000000000000000000000000000006040517f1cf993f4000000000000000000000000000000000000000000000000000000008152600401610451929190611076565b60405180910390fd5b61046482826109a0565b5050565b7f00000000000000000000000000000000000000000000000000000000000000003410156104c2576040517f3038c00a00000000000000000000000000000000000000000000000000000000815260040160405180910390fd5b600060018111156104d6576104d56114af565b5b600160009054906101000a900460ff1660018111156104f8576104f76114af565b5b1461052f576040517fd24a271400000000000000000000000000000000000000000000000000000000815260040160405180910390fd5b6002339080600181540180825580915050600190039060005260206000200160009091909190916101000a81548173ffffffffffffffffffffffffffffffffffffffff021916908373ffffffffffffffffffffffffffffffffffffffff1602179055503373ffffffffffffffffffffffffffffffffffffffff167f634f3211e3a4e43fee5a21ad9f87ca153b300fc78b1c557a2057dbe9c63bcb4760405160405180910390a2565b60006106176040518060400160405280600381526020017f30783000000000000000000000000000000000000000000000000000000000008152506107d4565b50905080610651576040517f8e4bc81700000000000000000000000000000000000000000000000000000000815260040160405180910390fd5b60018060006101000a81548160ff02191690836001811115610676576106756114af565b5b021790555060007f000000000000000000000000000000000000000000000000000000000000000073ffffffffffffffffffffffffffffffffffffffff16635d3b1d30600454600560009054906101000a900467ffffffffffffffff166003600560089054906101000a900463ffffffff1660016040518663ffffffff1660e01b815260040161070a9594939291906110ea565b602060405180830381600087803b15801561072457600080fd5b505af1158015610738573d6000803e3d6000fd5b505050506040513d601f19601f8201168201806040525081019061075c9190610ecb565b9050807fcd6e45c8998311cab7e9d4385596cac867e20a0587194b954fa3a731c93ce78b60405160405180910390a250505050565b600560009054906101000a900467ffffffffffffffff1681565b600381565b7f000000000000000000000000000000000000000000000000000000000000000081565b600060606000600160009054906101000a900460ff1660018111156107fc576107fb6114af565b5b600060018111156108105761080f6114af565b5b14905060007f0000000000000000000000000000000000000000000000000000000000000000600054426108449190611288565b119050600080471190506000806002805490501190508380156108645750825b801561086d5750815b80156108765750805b6040518060400160405280600381526020017f30783000000000000000000000000000000000000000000000000000000000008152509550955050505050915091565b600181565b7f000000000000000000000000000000000000000000000000000000000000000081565b600360009054906101000a900473ffffffffffffffffffffffffffffffffffffffff1681565b60045481565b6002818154811061091e57600080fd5b906000526020600020016000915054906101000a900473ffffffffffffffffffffffffffffffffffffffff1681565b60005481565b600160009054906101000a900460ff1681565b7f000000000000000000000000000000000000000000000000000000000000000081565b600560089054906101000a900463ffffffff1681565b6000600280549050826000815181106109bc576109bb6114de565b5b60200260200101516109ce9190611420565b90506000600282815481106109e6576109e56114de565b5b9060005260206000200160009054906101000a900473ffffffffffffffffffffffffffffffffffffffff16905080600360006101000a81548173ffffffffffffffffffffffffffffffffffffffff021916908373ffffffffffffffffffffffffffffffffffffffff160217905550600067ffffffffffffffff811115610a6f57610a6e61150d565b5b604051908082528060200260200182016040528015610a9d5781602001602082028036833780820191505090505b5060029080519060200190610ab3929190610bd3565b506000600160006101000a81548160ff02191690836001811115610ada57610ad96114af565b5b02179055504260008190555060008173ffffffffffffffffffffffffffffffffffffffff1647604051610b0c90611046565b60006040518083038185875af1925050503d8060008114610b49576040519150601f19603f3d011682016040523d82523d6000602084013e610b4e565b606091505b5050905080610b89576040517fa1d04b3900000000000000000000000000000000000000000000000000000000815260040160405180910390fd5b8173ffffffffffffffffffffffffffffffffffffffff167f5b690ec4a06fe979403046eaeea5b3ce38524683c3001f662c8b5a829632f7df60405160405180910390a25050505050565b828054828255906000526020600020908101928215610c4c579160200282015b82811115610c4b5782518260006101000a81548173ffffffffffffffffffffffffffffffffffffffff021916908373ffffffffffffffffffffffffffffffffffffffff16021790555091602001919060010190610bf3565b5b509050610c599190610c5d565b5090565b5b80821115610c76576000816000905550600101610c5e565b5090565b6000610c8d610c8884611204565b6111df565b90508083825260208201905082856020860282011115610cb057610caf611546565b5b60005b85811015610ce05781610cc68882610dde565b845260208401935060208301925050600181019050610cb3565b5050509392505050565b6000610cfd610cf884611230565b6111df565b905082815260208101848484011115610d1957610d1861154b565b5b610d248482856113ad565b509392505050565b600082601f830112610d4157610d40611541565b5b8135610d51848260208601610c7a565b91505092915050565b60008083601f840112610d7057610d6f611541565b5b8235905067ffffffffffffffff811115610d8d57610d8c61153c565b5b602083019150836001820283011115610da957610da8611546565b5b9250929050565b600082601f830112610dc557610dc4611541565b5b8135610dd5848260208601610cea565b91505092915050565b600081359050610ded81611582565b92915050565b600081519050610e0281611582565b92915050565b60008060208385031215610e1f57610e1e611555565b5b600083013567ffffffffffffffff811115610e3d57610e3c611550565b5b610e4985828601610d5a565b92509250509250929050565b600060208284031215610e6b57610e6a611555565b5b600082013567ffffffffffffffff811115610e8957610e88611550565b5b610e9584828501610db0565b91505092915050565b600060208284031215610eb457610eb3611555565b5b6000610ec284828501610dde565b91505092915050565b600060208284031215610ee157610ee0611555565b5b6000610eef84828501610df3565b91505092915050565b60008060408385031215610f0f57610f0e611555565b5b6000610f1d85828601610dde565b925050602083013567ffffffffffffffff811115610f3e57610f3d611550565b5b610f4a85828601610d2c565b9150509250929050565b610f5d816112ce565b82525050565b610f6c816112bc565b82525050565b610f7b816112e0565b82525050565b610f8a816112ec565b82525050565b6000610f9b82611261565b610fa5818561126c565b9350610fb58185602086016113bc565b610fbe8161155a565b840191505092915050565b610fd281611365565b82525050565b610fe181611377565b82525050565b6000610ff460008361127d565b9150610fff8261156b565b600082019050919050565b61101381611309565b82525050565b61102281611337565b82525050565b61103181611341565b82525050565b61104081611351565b82525050565b600061105182610fe7565b9150819050919050565b60006020820190506110706000830184610f54565b92915050565b600060408201905061108b6000830185610f63565b6110986020830184610f63565b9392505050565b60006040820190506110b46000830185610f72565b81810360208301526110c68184610f90565b90509392505050565b60006020820190506110e46000830184610f81565b92915050565b600060a0820190506110ff6000830188610f81565b61110c6020830187611037565b611119604083018661100a565b6111266060830185611028565b6111336080830184611028565b9695505050505050565b60006020820190506111526000830184610fc9565b92915050565b600060208201905061116d6000830184610fd8565b92915050565b6000602082019050611188600083018461100a565b92915050565b60006020820190506111a36000830184611019565b92915050565b60006020820190506111be6000830184611028565b92915050565b60006020820190506111d96000830184611037565b92915050565b60006111e96111fa565b90506111f582826113ef565b919050565b6000604051905090565b600067ffffffffffffffff82111561121f5761121e61150d565b5b602082029050602081019050919050565b600067ffffffffffffffff82111561124b5761124a61150d565b5b6112548261155a565b9050602081019050919050565b600081519050919050565b600082825260208201905092915050565b600081905092915050565b600061129382611337565b915061129e83611337565b9250828210156112b1576112b0611451565b5b828203905092915050565b60006112c782611317565b9050919050565b60006112d982611317565b9050919050565b60008115159050919050565b6000819050919050565b60008190506113048261156e565b919050565b600061ffff82169050919050565b600073ffffffffffffffffffffffffffffffffffffffff82169050919050565b6000819050919050565b600063ffffffff82169050919050565b600067ffffffffffffffff82169050919050565b600061137082611389565b9050919050565b6000611382826112f6565b9050919050565b60006113948261139b565b9050919050565b60006113a682611317565b9050919050565b82818337600083830152505050565b60005b838110156113da5780820151818401526020810190506113bf565b838111156113e9576000848401525b50505050565b6113f88261155a565b810181811067ffffffffffffffff821117156114175761141661150d565b5b80604052505050565b600061142b82611337565b915061143683611337565b92508261144657611445611480565b5b828206905092915050565b7f4e487b7100000000000000000000000000000000000000000000000000000000600052601160045260246000fd5b7f4e487b7100000000000000000000000000000000000000000000000000000000600052601260045260246000fd5b7f4e487b7100000000000000000000000000000000000000000000000000000000600052602160045260246000fd5b7f4e487b7100000000000000000000000000000000000000000000000000000000600052603260045260246000fd5b7f4e487b7100000000000000000000000000000000000000000000000000000000600052604160045260246000fd5b600080fd5b600080fd5b600080fd5b600080fd5b600080fd5b600080fd5b6000601f19601f8301169050919050565b50565b6002811061157f5761157e6114af565b5b50565b61158b81611337565b811461159657600080fd5b5056fea2646970667358221220da0956cd2651e1c97912b76f067a816ccc0867176d9b69cedcba8a749644764664736f6c63430008070033",
  "linkReferences": {},
  "deployedLinkReferences": {}
}