{
  "address": "0x5FbDB2315678afecb367f032d93F642f64180aa3",
  "abi": [
    {
      "inputs": [
        {
          "internalType": "uint256",
          "name": "entranceFee",
          "type": "uint256"
        },
        {
          "internalType": "address",
          "name": "vrfCordinatorV2",
          "type": "address"
        },
        {
          "internalType": "bytes32",
          "name": "gasLane",
          "type": "bytes32"
        },
        {
          "internalType": "uint64",
          "name": "subscriptionId",
          "type": "uint64"
        },
        {
          "internalType": "uint32",
          "name": "callbackGasLimit",
          "type": "uint32"
        }
      ],
      "stateMutability": "nonpayable",
      "type": "constructor"
    },
    {
      "inputs": [
        {
          "internalType": "address",
          "name": "have",
          "type": "address"
        },
        {
          "internalType": "address",
          "name": "want",
          "type": "address"
        }
      ],
      "name": "OnlyCoordinatorCanFulfill",
      "type": "error"
    },
    {
      "inputs": [],
      "name": "Raffle__NotAdmin",
      "type": "error"
    },
    {
      "inputs": [],
      "name": "Raffle__SendMoreToEnterRaffle",
      "type": "error"
    },
    {
      "inputs": [],
      "name": "Raffle__TransferFailed",
      "type": "error"
    },
    {
      "inputs": [],
      "name": "Raffle__UpkeepNotNeeded",
      "type": "error"
    },
    {
      "anonymous": false,
      "inputs": [
        {
          "indexed": true,
          "internalType": "address",
          "name": "player",
          "type": "address"
        }
      ],
      "name": "RaffleEntered",
      "type": "event"
    },
    {
      "anonymous": false,
      "inputs": [
        {
          "indexed": true,
          "internalType": "uint256",
          "name": "requestId",
          "type": "uint256"
        }
      ],
      "name": "RequestedRaffleWinner",
      "type": "event"
    },
    {
      "anonymous": false,
      "inputs": [
        {
          "indexed": true,
          "internalType": "address",
          "name": "winner",
          "type": "address"
        }
      ],
      "name": "WinnerPicked",
      "type": "event"
    },
    {
      "inputs": [],
      "name": "NUM_WORDS",
      "outputs": [
        {
          "internalType": "uint32",
          "name": "",
          "type": "uint32"
        }
      ],
      "stateMutability": "view",
      "type": "function"
    },
    {
      "inputs": [],
      "name": "REQUEST_CONFIRMATIONS",
      "outputs": [
        {
          "internalType": "uint16",
          "name": "",
          "type": "uint16"
        }
      ],
      "stateMutability": "view",
      "type": "function"
    },
    {
      "inputs": [],
      "name": "checkUpKeep",
      "outputs": [
        {
          "internalType": "bool",
          "name": "",
          "type": "bool"
        }
      ],
      "stateMutability": "view",
      "type": "function"
    },
    {
      "inputs": [],
      "name": "closeRaffle",
      "outputs": [],
      "stateMutability": "nonpayable",
      "type": "function"
    },
    {
      "inputs": [],
      "name": "enterRaffle",
      "outputs": [],
      "stateMutability": "payable",
      "type": "function"
    },
    {
      "inputs": [],
      "name": "getEntranceFee",
      "outputs": [
        {
          "internalType": "uint256",
          "name": "",
          "type": "uint256"
        }
      ],
      "stateMutability": "view",
      "type": "function"
    },
    {
      "inputs": [],
      "name": "getNumWords",
      "outputs": [
        {
          "internalType": "uint256",
          "name": "",
          "type": "uint256"
        }
      ],
      "stateMutability": "pure",
      "type": "function"
    },
    {
      "inputs": [],
      "name": "getNumberOfPlayers",
      "outputs": [
        {
          "internalType": "uint256",
          "name": "",
          "type": "uint256"
        }
      ],
      "stateMutability": "view",
      "type": "function"
    },
    {
      "inputs": [
        {
          "internalType": "uint256",
          "name": "index",
          "type": "uint256"
        }
      ],
      "name": "getPlayer",
      "outputs": [
        {
          "internalType": "address",
          "name": "",
          "type": "address"
        }
      ],
      "stateMutability": "view",
      "type": "function"
    },
    {
      "inputs": [],
      "name": "getRaffleState",
      "outputs": [
        {
          "internalType": "enum Raffle.RaffleState",
          "name": "",
          "type": "uint8"
        }
      ],
      "stateMutability": "view",
      "type": "function"
    },
    {
      "inputs": [],
      "name": "getRecentWinner",
      "outputs": [
        {
          "internalType": "address",
          "name": "",
          "type": "address"
        }
      ],
      "stateMutability": "view",
      "type": "function"
    },
    {
      "inputs": [],
      "name": "getRequestConfirmations",
      "outputs": [
        {
          "internalType": "uint256",
          "name": "",
          "type": "uint256"
        }
      ],
      "stateMutability": "pure",
      "type": "function"
    },
    {
      "inputs": [],
      "name": "i_admin",
      "outputs": [
        {
          "internalType": "address",
          "name": "",
          "type": "address"
        }
      ],
      "stateMutability": "view",
      "type": "function"
    },
    {
      "inputs": [],
      "name": "i_callbackGasLimit",
      "outputs": [
        {
          "internalType": "uint32",
          "name": "",
          "type": "uint32"
        }
      ],
      "stateMutability": "view",
      "type": "function"
    },
    {
      "inputs": [],
      "name": "i_entranceFee",
      "outputs": [
        {
          "internalType": "uint256",
          "name": "",
          "type": "uint256"
        }
      ],
      "stateMutability": "view",
      "type": "function"
    },
    {
      "inputs": [],
      "name": "i_gasLane",
      "outputs": [
        {
          "internalType": "bytes32",
          "name": "",
          "type": "bytes32"
        }
      ],
      "stateMutability": "view",
      "type": "function"
    },
    {
      "inputs": [],
      "name": "i_subscriptionId",
      "outputs": [
        {
          "internalType": "uint64",
          "name": "",
          "type": "uint64"
        }
      ],
      "stateMutability": "view",
      "type": "function"
    },
    {
      "inputs": [],
      "name": "i_vrfCordinator",
      "outputs": [
        {
          "internalType": "contract VRFCoordinatorV2Interface",
          "name": "",
          "type": "address"
        }
      ],
      "stateMutability": "view",
      "type": "function"
    },
    {
      "inputs": [
        {
          "internalType": "uint256",
          "name": "requestId",
          "type": "uint256"
        },
        {
          "internalType": "uint256[]",
          "name": "randomWords",
          "type": "uint256[]"
        }
      ],
      "name": "rawFulfillRandomWords",
      "outputs": [],
      "stateMutability": "nonpayable",
      "type": "function"
    },
    {
      "inputs": [
        {
          "internalType": "uint256",
          "name": "",
          "type": "uint256"
        }
      ],
      "name": "s_players",
      "outputs": [
        {
          "internalType": "address payable",
          "name": "",
          "type": "address"
        }
      ],
      "stateMutability": "view",
      "type": "function"
    },
    {
      "inputs": [],
      "name": "s_raffleState",
      "outputs": [
        {
          "internalType": "enum Raffle.RaffleState",
          "name": "",
          "type": "uint8"
        }
      ],
      "stateMutability": "view",
      "type": "function"
    },
    {
      "inputs": [],
      "name": "s_recentWinner",
      "outputs": [
        {
          "internalType": "address payable",
          "name": "",
          "type": "address"
        }
      ],
      "stateMutability": "view",
      "type": "function"
    }
  ],
  "transactionHash": "0x3bb9d762334140491aa06768d33cc14b3a42ee8f856fa338e0130bba30884d38",
  "args": [
    "100000000000000000",
    "0x5FbDB2315678afecb367f032d93F642f64180aa3",
    "0xd89b2bf150e3b9e13446986e571fb9cab24b13cea0a43ea20a6049a85cc807cc",
    "6008",
    "500000"
  ],
  "numDeployments": 1,
  "solcInputHash": "98b31ba785d06979a846e7a6c0e89df3",
  "bytecode": "0x60e06040523480156200001157600080fd5b5060405162001830380380620018308339818101604052810190620000379190620001bf565b838073ffffffffffffffffffffffffffffffffffffffff1660808173ffffffffffffffffffffffffffffffffffffffff1660601b815250505033600360006101000a81548173ffffffffffffffffffffffffffffffffffffffff021916908373ffffffffffffffffffffffffffffffffffffffff1602179055508460a081815250508373ffffffffffffffffffffffffffffffffffffffff1660c08173ffffffffffffffffffffffffffffffffffffffff1660601b815250508260048190555081600560006101000a81548167ffffffffffffffff021916908367ffffffffffffffff16021790555080600560086101000a81548163ffffffff021916908363ffffffff16021790555050505050506200033a565b6000815190506200015d81620002b8565b92915050565b6000815190506200017481620002d2565b92915050565b6000815190506200018b81620002ec565b92915050565b600081519050620001a28162000306565b92915050565b600081519050620001b98162000320565b92915050565b600080600080600060a08688031215620001de57620001dd620002b3565b5b6000620001ee888289016200017a565b955050602062000201888289016200014c565b9450506040620002148882890162000163565b93505060606200022788828901620001a8565b92505060806200023a8882890162000191565b9150509295509295909350565b6000620002548262000265565b9050919050565b6000819050919050565b600073ffffffffffffffffffffffffffffffffffffffff82169050919050565b6000819050919050565b600063ffffffff82169050919050565b600067ffffffffffffffff82169050919050565b600080fd5b620002c38162000247565b8114620002cf57600080fd5b50565b620002dd816200025b565b8114620002e957600080fd5b50565b620002f78162000285565b81146200030357600080fd5b50565b62000311816200028f565b81146200031d57600080fd5b50565b6200032b816200029f565b81146200033757600080fd5b50565b60805160601c60a05160c05160601c6114a46200038c600039600081816108610152610a7b0152600081816104dd015281816105d90152610973015260008181610519015261056d01526114a46000f3fe6080604052600436106101355760003560e01c806378a77b84116100ab578063c8249d8a1161006f578063c8249d8a146103c5578063cc45483f146103f0578063cd1d770d1461041b578063d757d02714610446578063e55ae4e814610471578063fd6673f5146104ae57610135565b806378a77b84146102f05780637ea3e6c1146103075780638638b0c6146103325780638e879c8a1461035d578063ae771f6b1461038857610135565b8063473f1ddc116100fd578063473f1ddc146101ee5780634c43d2841461021957806353a2c19a146102445780635f1b0fd81461026f57806367f082b01461029a57806372cf6e34146102c557610135565b806309bc33a71461013a578063115cbaf5146101655780631fe543e3146101905780632cfcc539146101b9578063470cdf97146101c3575b600080fd5b34801561014657600080fd5b5061014f6104d9565b60405161015c919061115f565b60405180910390f35b34801561017157600080fd5b5061017a610501565b6040516101879190611129565b60405180910390f35b34801561019c57600080fd5b506101b760048036038101906101b29190610efc565b610517565b005b6101c16105d7565b005b3480156101cf57600080fd5b506101d86106d9565b6040516101e59190611195565b60405180910390f35b3480156101fa57600080fd5b506102036106f3565b6040516102109190611026565b60405180910390f35b34801561022557600080fd5b5061022e61071d565b60405161023b9190611026565b60405180910390f35b34801561025057600080fd5b50610259610743565b604051610266919061115f565b60405180910390f35b34801561027b57600080fd5b50610284610752565b604051610291919061115f565b60405180910390f35b3480156102a657600080fd5b506102af61075f565b6040516102bc9190611144565b60405180910390f35b3480156102d157600080fd5b506102da610764565b6040516102e7919061117a565b60405180910390f35b3480156102fc57600080fd5b50610305610769565b005b34801561031357600080fd5b5061031c610971565b604051610329919061115f565b60405180910390f35b34801561033e57600080fd5b50610347610995565b6040516103549190611041565b60405180910390f35b34801561036957600080fd5b506103726109bb565b60405161037f91906110a0565b60405180910390f35b34801561039457600080fd5b506103af60048036038101906103aa9190610ea2565b6109c1565b6040516103bc9190611041565b60405180910390f35b3480156103d157600080fd5b506103da610a00565b6040516103e79190611085565b60405180910390f35b3480156103fc57600080fd5b50610405610a68565b6040516104129190611129565b60405180910390f35b34801561042757600080fd5b50610430610a79565b60405161043d919061110e565b60405180910390f35b34801561045257600080fd5b5061045b610a9d565b604051610468919061117a565b60405180910390f35b34801561047d57600080fd5b5061049860048036038101906104939190610ea2565b610ab3565b6040516104a59190611026565b60405180910390f35b3480156104ba57600080fd5b506104c3610afb565b6040516104d0919061115f565b60405180910390f35b60007f0000000000000000000000000000000000000000000000000000000000000000905090565b60008060009054906101000a900460ff16905090565b7f000000000000000000000000000000000000000000000000000000000000000073ffffffffffffffffffffffffffffffffffffffff163373ffffffffffffffffffffffffffffffffffffffff16146105c957337f00000000000000000000000000000000000000000000000000000000000000006040517f1cf993f40000000000000000000000000000000000000000000000000000000081526004016105c092919061105c565b60405180910390fd5b6105d38282610b08565b5050565b7f0000000000000000000000000000000000000000000000000000000000000000341015610631576040517f3038c00a00000000000000000000000000000000000000000000000000000000815260040160405180910390fd5b6001339080600181540180825580915050600190039060005260206000200160009091909190916101000a81548173ffffffffffffffffffffffffffffffffffffffff021916908373ffffffffffffffffffffffffffffffffffffffff1602179055503373ffffffffffffffffffffffffffffffffffffffff167f634f3211e3a4e43fee5a21ad9f87ca153b300fc78b1c557a2057dbe9c63bcb4760405160405180910390a2565b600560009054906101000a900467ffffffffffffffff1681565b6000600260009054906101000a900473ffffffffffffffffffffffffffffffffffffffff16905090565b600360009054906101000a900473ffffffffffffffffffffffffffffffffffffffff1681565b6000600163ffffffff16905090565b6000600361ffff16905090565b600381565b600181565b600360009054906101000a900473ffffffffffffffffffffffffffffffffffffffff1673ffffffffffffffffffffffffffffffffffffffff163373ffffffffffffffffffffffffffffffffffffffff16146107f0576040517ffd19b09500000000000000000000000000000000000000000000000000000000815260040160405180910390fd5b60006107fa610a00565b905080610833576040517f8e4bc81700000000000000000000000000000000000000000000000000000000815260040160405180910390fd5b60026000806101000a81548160ff021916908360028111156108585761085761138e565b5b021790555060007f000000000000000000000000000000000000000000000000000000000000000073ffffffffffffffffffffffffffffffffffffffff16635d3b1d30600454600560009054906101000a900467ffffffffffffffff166003600560089054906101000a900463ffffffff1660016040518663ffffffff1660e01b81526004016108ec9594939291906110bb565b602060405180830381600087803b15801561090657600080fd5b505af115801561091a573d6000803e3d6000fd5b505050506040513d601f19601f8201168201806040525081019061093e9190610ecf565b9050807fcd6e45c8998311cab7e9d4385596cac867e20a0587194b954fa3a731c93ce78b60405160405180910390a25050565b7f000000000000000000000000000000000000000000000000000000000000000081565b600260009054906101000a900473ffffffffffffffffffffffffffffffffffffffff1681565b60045481565b600181815481106109d157600080fd5b906000526020600020016000915054906101000a900473ffffffffffffffffffffffffffffffffffffffff1681565b60008060006002811115610a1757610a1661138e565b5b60008054906101000a900460ff166002811115610a3757610a3661138e565b5b14905060008047119050600080600180549050119050828015610a575750815b8015610a605750805b935050505090565b60008054906101000a900460ff1681565b7f000000000000000000000000000000000000000000000000000000000000000081565b600560089054906101000a900463ffffffff1681565b600060018281548110610ac957610ac86113bd565b5b9060005260206000200160009054906101000a900473ffffffffffffffffffffffffffffffffffffffff169050919050565b6000600180549050905090565b600060018054905082600081518110610b2457610b236113bd565b5b6020026020010151610b36919061132e565b9050600060018281548110610b4e57610b4d6113bd565b5b9060005260206000200160009054906101000a900473ffffffffffffffffffffffffffffffffffffffff16905080600260006101000a81548173ffffffffffffffffffffffffffffffffffffffff021916908373ffffffffffffffffffffffffffffffffffffffff160217905550600067ffffffffffffffff811115610bd757610bd66113ec565b5b604051908082528060200260200182016040528015610c055781602001602082028036833780820191505090505b5060019080519060200190610c1b929190610d33565b5060016000806101000a81548160ff02191690836002811115610c4157610c4061138e565b5b021790555060008173ffffffffffffffffffffffffffffffffffffffff1647604051610c6c90611011565b60006040518083038185875af1925050503d8060008114610ca9576040519150601f19603f3d011682016040523d82523d6000602084013e610cae565b606091505b5050905080610ce9576040517fa1d04b3900000000000000000000000000000000000000000000000000000000815260040160405180910390fd5b8173ffffffffffffffffffffffffffffffffffffffff167f5b690ec4a06fe979403046eaeea5b3ce38524683c3001f662c8b5a829632f7df60405160405180910390a25050505050565b828054828255906000526020600020908101928215610dac579160200282015b82811115610dab5782518260006101000a81548173ffffffffffffffffffffffffffffffffffffffff021916908373ffffffffffffffffffffffffffffffffffffffff16021790555091602001919060010190610d53565b5b509050610db99190610dbd565b5090565b5b80821115610dd6576000816000905550600101610dbe565b5090565b6000610ded610de8846111d5565b6111b0565b90508083825260208201905082856020860282011115610e1057610e0f611420565b5b60005b85811015610e405781610e268882610e78565b845260208401935060208301925050600181019050610e13565b5050509392505050565b600082601f830112610e5f57610e5e61141b565b5b8135610e6f848260208601610dda565b91505092915050565b600081359050610e8781611457565b92915050565b600081519050610e9c81611457565b92915050565b600060208284031215610eb857610eb761142a565b5b6000610ec684828501610e78565b91505092915050565b600060208284031215610ee557610ee461142a565b5b6000610ef384828501610e8d565b91505092915050565b60008060408385031215610f1357610f1261142a565b5b6000610f2185828601610e78565b925050602083013567ffffffffffffffff811115610f4257610f41611425565b5b610f4e85828601610e4a565b9150509250929050565b610f618161121e565b82525050565b610f708161120c565b82525050565b610f7f81611230565b82525050565b610f8e8161123c565b82525050565b610f9d816112b5565b82525050565b610fac816112c7565b82525050565b6000610fbf600083611201565b9150610fca82611440565b600082019050919050565b610fde81611259565b82525050565b610fed81611287565b82525050565b610ffc81611291565b82525050565b61100b816112a1565b82525050565b600061101c82610fb2565b9150819050919050565b600060208201905061103b6000830184610f67565b92915050565b60006020820190506110566000830184610f58565b92915050565b60006040820190506110716000830185610f67565b61107e6020830184610f67565b9392505050565b600060208201905061109a6000830184610f76565b92915050565b60006020820190506110b56000830184610f85565b92915050565b600060a0820190506110d06000830188610f85565b6110dd6020830187611002565b6110ea6040830186610fd5565b6110f76060830185610ff3565b6111046080830184610ff3565b9695505050505050565b60006020820190506111236000830184610f94565b92915050565b600060208201905061113e6000830184610fa3565b92915050565b60006020820190506111596000830184610fd5565b92915050565b60006020820190506111746000830184610fe4565b92915050565b600060208201905061118f6000830184610ff3565b92915050565b60006020820190506111aa6000830184611002565b92915050565b60006111ba6111cb565b90506111c682826112fd565b919050565b6000604051905090565b600067ffffffffffffffff8211156111f0576111ef6113ec565b5b602082029050602081019050919050565b600081905092915050565b600061121782611267565b9050919050565b600061122982611267565b9050919050565b60008115159050919050565b6000819050919050565b600081905061125482611443565b919050565b600061ffff82169050919050565b600073ffffffffffffffffffffffffffffffffffffffff82169050919050565b6000819050919050565b600063ffffffff82169050919050565b600067ffffffffffffffff82169050919050565b60006112c0826112d9565b9050919050565b60006112d282611246565b9050919050565b60006112e4826112eb565b9050919050565b60006112f682611267565b9050919050565b6113068261142f565b810181811067ffffffffffffffff82111715611325576113246113ec565b5b80604052505050565b600061133982611287565b915061134483611287565b9250826113545761135361135f565b5b828206905092915050565b7f4e487b7100000000000000000000000000000000000000000000000000000000600052601260045260246000fd5b7f4e487b7100000000000000000000000000000000000000000000000000000000600052602160045260246000fd5b7f4e487b7100000000000000000000000000000000000000000000000000000000600052603260045260246000fd5b7f4e487b7100000000000000000000000000000000000000000000000000000000600052604160045260246000fd5b600080fd5b600080fd5b600080fd5b600080fd5b6000601f19601f8301169050919050565b50565b600381106114545761145361138e565b5b50565b61146081611287565b811461146b57600080fd5b5056fea2646970667358221220dae78e31b685bf538fae339ff5be801d82c1436086c527e2a40dbb98ea337aec64736f6c63430008070033",
  "devdoc": {
    "kind": "dev",
    "methods": {
      "checkUpKeep()": {
        "returns": {
          "_0": "bool checks if all conditions are true"
        }
      },
      "enterRaffle()": {
        "details": "if yes we push the current player in our arrayemitting an event"
      }
    },
    "version": 1
  },
  "userdoc": {
    "kind": "user",
    "methods": {
      "checkUpKeep()": {
        "notice": "checks if the raffle state is openchecks if there is any balance deposited in the contractchecks if there are any players"
      },
      "enterRaffle()": {
        "notice": "first line checks if there is enough deposited ether in the function to enter the raffle"
      },
      "getRaffleState()": {
        "notice": "Getter Functions "
      }
    },
    "version": 1
  },
  "storageLayout": {
    "storage": [
      {
        "astId": 845,
        "contract": "contracts/Raffle.sol:Raffle",
        "label": "s_raffleState",
        "offset": 0,
        "slot": "0",
        "type": "t_enum(RaffleState)840"
      },
      {
        "astId": 848,
        "contract": "contracts/Raffle.sol:Raffle",
        "label": "s_players",
        "offset": 0,
        "slot": "1",
        "type": "t_array(t_address_payable)dyn_storage"
      },
      {
        "astId": 850,
        "contract": "contracts/Raffle.sol:Raffle",
        "label": "s_recentWinner",
        "offset": 0,
        "slot": "2",
        "type": "t_address_payable"
      },
      {
        "astId": 852,
        "contract": "contracts/Raffle.sol:Raffle",
        "label": "i_admin",
        "offset": 0,
        "slot": "3",
        "type": "t_address"
      },
      {
        "astId": 857,
        "contract": "contracts/Raffle.sol:Raffle",
        "label": "i_gasLane",
        "offset": 0,
        "slot": "4",
        "type": "t_bytes32"
      },
      {
        "astId": 859,
        "contract": "contracts/Raffle.sol:Raffle",
        "label": "i_subscriptionId",
        "offset": 0,
        "slot": "5",
        "type": "t_uint64"
      },
      {
        "astId": 864,
        "contract": "contracts/Raffle.sol:Raffle",
        "label": "i_callbackGasLimit",
        "offset": 8,
        "slot": "5",
        "type": "t_uint32"
      }
    ],
    "types": {
      "t_address": {
        "encoding": "inplace",
        "label": "address",
        "numberOfBytes": "20"
      },
      "t_address_payable": {
        "encoding": "inplace",
        "label": "address payable",
        "numberOfBytes": "20"
      },
      "t_array(t_address_payable)dyn_storage": {
        "base": "t_address_payable",
        "encoding": "dynamic_array",
        "label": "address payable[]",
        "numberOfBytes": "32"
      },
      "t_bytes32": {
        "encoding": "inplace",
        "label": "bytes32",
        "numberOfBytes": "32"
      },
      "t_enum(RaffleState)840": {
        "encoding": "inplace",
        "label": "enum Raffle.RaffleState",
        "numberOfBytes": "1"
      },
      "t_uint32": {
        "encoding": "inplace",
        "label": "uint32",
        "numberOfBytes": "4"
      },
      "t_uint64": {
        "encoding": "inplace",
        "label": "uint64",
        "numberOfBytes": "8"
      }
    }
  }
}